{
  "_format": "hh-sol-artifact-1",
  "contractName": "StablePaySplitter",
  "sourceName": "contracts/StablePaySplitter.sol",
  "abi": [
    {
      "inputs": [
        {
          "internalType": "address",
          "name": "_feeRecipient",
          "type": "address"
        },
        {
          "internalType": "address[]",
          "name": "_initialTokens",
          "type": "address[]"
        }
      ],
      "stateMutability": "nonpayable",
      "type": "constructor"
    },
    {
      "inputs": [],
      "name": "EnforcedPause",
      "type": "error"
    },
    {
      "inputs": [],
      "name": "ExpectedPause",
      "type": "error"
    },
    {
      "inputs": [],
      "name": "InsufficientAllowance",
      "type": "error"
    },
    {
      "inputs": [],
      "name": "InvalidAmount",
      "type": "error"
    },
    {
      "inputs": [],
      "name": "InvalidFeeBasisPoints",
      "type": "error"
    },
    {
      "inputs": [],
      "name": "InvalidFeeRecipient",
      "type": "error"
    },
    {
      "inputs": [],
      "name": "InvalidMerchant",
      "type": "error"
    },
    {
      "inputs": [
        {
          "internalType": "address",
          "name": "owner",
          "type": "address"
        }
      ],
      "name": "OwnableInvalidOwner",
      "type": "error"
    },
    {
      "inputs": [
        {
          "internalType": "address",
          "name": "account",
          "type": "address"
        }
      ],
      "name": "OwnableUnauthorizedAccount",
      "type": "error"
    },
    {
      "inputs": [],
      "name": "ReentrancyGuardReentrantCall",
      "type": "error"
    },
    {
      "inputs": [
        {
          "internalType": "address",
          "name": "token",
          "type": "address"
        }
      ],
      "name": "SafeERC20FailedOperation",
      "type": "error"
    },
    {
      "inputs": [],
      "name": "TokenNotAllowed",
      "type": "error"
    },
    {
      "inputs": [],
      "name": "TransferFailed",
      "type": "error"
    },
    {
      "anonymous": false,
      "inputs": [
        {
          "indexed": true,
          "internalType": "address",
          "name": "token",
          "type": "address"
        },
        {
          "indexed": false,
          "internalType": "uint256",
          "name": "amount",
          "type": "uint256"
        },
        {
          "indexed": true,
          "internalType": "address",
          "name": "to",
          "type": "address"
        }
      ],
      "name": "EmergencyWithdraw",
      "type": "event"
    },
    {
      "anonymous": false,
      "inputs": [
        {
          "indexed": true,
          "internalType": "address",
          "name": "oldRecipient",
          "type": "address"
        },
        {
          "indexed": true,
          "internalType": "address",
          "name": "newRecipient",
          "type": "address"
        }
      ],
      "name": "FeeRecipientUpdated",
      "type": "event"
    },
    {
      "anonymous": false,
      "inputs": [
        {
          "indexed": true,
          "internalType": "address",
          "name": "previousOwner",
          "type": "address"
        },
        {
          "indexed": true,
          "internalType": "address",
          "name": "newOwner",
          "type": "address"
        }
      ],
      "name": "OwnershipTransferred",
      "type": "event"
    },
    {
      "anonymous": false,
      "inputs": [
        {
          "indexed": false,
          "internalType": "address",
          "name": "account",
          "type": "address"
        }
      ],
      "name": "Paused",
      "type": "event"
    },
    {
      "anonymous": false,
      "inputs": [
        {
          "indexed": true,
          "internalType": "bytes32",
          "name": "orderId",
          "type": "bytes32"
        },
        {
          "indexed": true,
          "internalType": "address",
          "name": "token",
          "type": "address"
        },
        {
          "indexed": true,
          "internalType": "address",
          "name": "merchant",
          "type": "address"
        },
        {
          "indexed": false,
          "internalType": "address",
          "name": "payer",
          "type": "address"
        },
        {
          "indexed": false,
          "internalType": "uint256",
          "name": "totalAmount",
          "type": "uint256"
        },
        {
          "indexed": false,
          "internalType": "uint256",
          "name": "merchantAmount",
          "type": "uint256"
        },
        {
          "indexed": false,
          "internalType": "uint256",
          "name": "feeAmount",
          "type": "uint256"
        },
        {
          "indexed": false,
          "internalType": "uint16",
          "name": "feeBasisPoints",
          "type": "uint16"
        }
      ],
      "name": "PaymentProcessed",
      "type": "event"
    },
    {
      "anonymous": false,
      "inputs": [
        {
          "indexed": true,
          "internalType": "address",
          "name": "token",
          "type": "address"
        },
        {
          "indexed": false,
          "internalType": "bool",
          "name": "allowed",
          "type": "bool"
        }
      ],
      "name": "TokenWhitelistUpdated",
      "type": "event"
    },
    {
      "anonymous": false,
      "inputs": [
        {
          "indexed": false,
          "internalType": "address",
          "name": "account",
          "type": "address"
        }
      ],
      "name": "Unpaused",
      "type": "event"
    },
    {
      "inputs": [],
      "name": "MAX_FEE_BASIS_POINTS",
      "outputs": [
        {
          "internalType": "uint16",
          "name": "",
          "type": "uint16"
        }
      ],
      "stateMutability": "view",
      "type": "function"
    },
    {
      "inputs": [],
      "name": "MIN_FEE_BASIS_POINTS",
      "outputs": [
        {
          "internalType": "uint16",
          "name": "",
          "type": "uint16"
        }
      ],
      "stateMutability": "view",
      "type": "function"
    },
    {
      "inputs": [
        {
          "internalType": "address",
          "name": "",
          "type": "address"
        }
      ],
      "name": "allowedTokens",
      "outputs": [
        {
          "internalType": "bool",
          "name": "",
          "type": "bool"
        }
      ],
      "stateMutability": "view",
      "type": "function"
    },
    {
      "inputs": [
        {
          "internalType": "uint256",
          "name": "amount",
          "type": "uint256"
        },
        {
          "internalType": "uint16",
          "name": "feeBasisPoints",
          "type": "uint16"
        }
      ],
      "name": "calculateSplit",
      "outputs": [
        {
          "internalType": "uint256",
          "name": "merchantAmount",
          "type": "uint256"
        },
        {
          "internalType": "uint256",
          "name": "feeAmount",
          "type": "uint256"
        }
      ],
      "stateMutability": "pure",
      "type": "function"
    },
    {
      "inputs": [
        {
          "internalType": "address",
          "name": "token",
          "type": "address"
        },
        {
          "internalType": "uint256",
          "name": "amount",
          "type": "uint256"
        },
        {
          "internalType": "address",
          "name": "to",
          "type": "address"
        }
      ],
      "name": "emergencyWithdraw",
      "outputs": [],
      "stateMutability": "nonpayable",
      "type": "function"
    },
    {
      "inputs": [],
      "name": "feeRecipient",
      "outputs": [
        {
          "internalType": "address",
          "name": "",
          "type": "address"
        }
      ],
      "stateMutability": "view",
      "type": "function"
    },
    {
      "inputs": [
        {
          "internalType": "address",
          "name": "token",
          "type": "address"
        }
      ],
      "name": "isTokenAllowed",
      "outputs": [
        {
          "internalType": "bool",
          "name": "",
          "type": "bool"
        }
      ],
      "stateMutability": "view",
      "type": "function"
    },
    {
      "inputs": [],
      "name": "owner",
      "outputs": [
        {
          "internalType": "address",
          "name": "",
          "type": "address"
        }
      ],
      "stateMutability": "view",
      "type": "function"
    },
    {
      "inputs": [],
      "name": "pause",
      "outputs": [],
      "stateMutability": "nonpayable",
      "type": "function"
    },
    {
      "inputs": [],
      "name": "paused",
      "outputs": [
        {
          "internalType": "bool",
          "name": "",
          "type": "bool"
        }
      ],
      "stateMutability": "view",
      "type": "function"
    },
    {
      "inputs": [
        {
          "internalType": "address",
          "name": "token",
          "type": "address"
        },
        {
          "internalType": "address",
          "name": "merchant",
          "type": "address"
        },
        {
          "internalType": "uint256",
          "name": "amount",
          "type": "uint256"
        },
        {
          "internalType": "uint16",
          "name": "feeBasisPoints",
          "type": "uint16"
        },
        {
          "internalType": "bytes32",
          "name": "orderId",
          "type": "bytes32"
        }
      ],
      "name": "processPayment",
      "outputs": [],
      "stateMutability": "nonpayable",
      "type": "function"
    },
    {
      "inputs": [
        {
          "internalType": "address",
          "name": "token",
          "type": "address"
        },
        {
          "internalType": "address",
          "name": "merchant",
          "type": "address"
        },
        {
          "internalType": "uint256",
          "name": "amount",
          "type": "uint256"
        },
        {
          "internalType": "uint16",
          "name": "feeBasisPoints",
          "type": "uint16"
        },
        {
          "internalType": "bytes32",
          "name": "orderId",
          "type": "bytes32"
        },
        {
          "internalType": "uint256",
          "name": "deadline",
          "type": "uint256"
        },
        {
          "internalType": "uint8",
          "name": "v",
          "type": "uint8"
        },
        {
          "internalType": "bytes32",
          "name": "r",
          "type": "bytes32"
        },
        {
          "internalType": "bytes32",
          "name": "s",
          "type": "bytes32"
        }
      ],
      "name": "processPaymentWithPermit",
      "outputs": [],
      "stateMutability": "nonpayable",
      "type": "function"
    },
    {
      "inputs": [],
      "name": "renounceOwnership",
      "outputs": [],
      "stateMutability": "nonpayable",
      "type": "function"
    },
    {
      "inputs": [
        {
          "internalType": "address",
          "name": "newFeeRecipient",
          "type": "address"
        }
      ],
      "name": "setFeeRecipient",
      "outputs": [],
      "stateMutability": "nonpayable",
      "type": "function"
    },
    {
      "inputs": [
        {
          "internalType": "address",
          "name": "token",
          "type": "address"
        },
        {
          "internalType": "bool",
          "name": "allowed",
          "type": "bool"
        }
      ],
      "name": "setTokenAllowed",
      "outputs": [],
      "stateMutability": "nonpayable",
      "type": "function"
    },
    {
      "inputs": [
        {
          "internalType": "address[]",
          "name": "tokens",
          "type": "address[]"
        },
        {
          "internalType": "bool",
          "name": "allowed",
          "type": "bool"
        }
      ],
      "name": "setTokensAllowed",
      "outputs": [],
      "stateMutability": "nonpayable",
      "type": "function"
    },
    {
      "inputs": [
        {
          "internalType": "address",
          "name": "",
          "type": "address"
        }
      ],
      "name": "totalFeesCollected",
      "outputs": [
        {
          "internalType": "uint256",
          "name": "",
          "type": "uint256"
        }
      ],
      "stateMutability": "view",
      "type": "function"
    },
    {
      "inputs": [
        {
          "internalType": "address",
          "name": "",
          "type": "address"
        }
      ],
      "name": "totalVolumeProcessed",
      "outputs": [
        {
          "internalType": "uint256",
          "name": "",
          "type": "uint256"
        }
      ],
      "stateMutability": "view",
      "type": "function"
    },
    {
      "inputs": [
        {
          "internalType": "address",
          "name": "newOwner",
          "type": "address"
        }
      ],
      "name": "transferOwnership",
      "outputs": [],
      "stateMutability": "nonpayable",
      "type": "function"
    },
    {
      "inputs": [],
      "name": "unpause",
      "outputs": [],
      "stateMutability": "nonpayable",
      "type": "function"
    }
  ],
  "bytecode": "0x60806040523480156200001157600080fd5b506040516200149138038062001491833981016040819052620000349162000256565b33806200005b57604051631e4fbdf760e01b81526000600482015260240160405180910390fd5b6200006681620001d3565b50600180556001600160a01b0382166200009357604051630ed1b8b360e31b815260040160405180910390fd5b60028054610100600160a81b0319166101006001600160a01b0385160217905560005b8151811015620001ca5760006001600160a01b0316828281518110620000e057620000e06200033f565b60200260200101516001600160a01b031614620001b5576001600360008484815181106200011257620001126200033f565b60200260200101516001600160a01b03166001600160a01b0316815260200190815260200160002060006101000a81548160ff0219169083151502179055508181815181106200016657620001666200033f565b60200260200101516001600160a01b03167f67821d5384bb02aab1ba91a477f89c9966cd30f475b02618bdc58712bca512756001604051620001ac911515815260200190565b60405180910390a25b80620001c18162000355565b915050620000b6565b5050506200037d565b600080546001600160a01b038381166001600160a01b0319831681178455604051919092169283917f8be0079c531659141344cd1fd0a4f28419497f9722a3daafe3b4186f6b6457e09190a35050565b80516001600160a01b03811681146200023b57600080fd5b919050565b634e487b7160e01b600052604160045260246000fd5b600080604083850312156200026a57600080fd5b620002758362000223565b602084810151919350906001600160401b03808211156200029557600080fd5b818601915086601f830112620002aa57600080fd5b815181811115620002bf57620002bf62000240565b8060051b604051601f19603f83011681018181108582111715620002e757620002e762000240565b6040529182528482019250838101850191898311156200030657600080fd5b938501935b828510156200032f576200031f8562000223565b845293850193928501926200030b565b8096505050505050509250929050565b634e487b7160e01b600052603260045260246000fd5b6000600182016200037657634e487b7160e01b600052601160045260246000fd5b5060010190565b611104806200038d6000396000f3fe608060405234801561001057600080fd5b506004361061012c5760003560e01c80638456cb59116100ad578063e744092e11610071578063e744092e1461028e578063e74b981b146102b1578063f2fde38b146102c4578063f9d6628d146102d7578063f9eaee0d146102ea57600080fd5b80638456cb591461021a57806388a40eed146102225780638da5cb5b14610242578063cd85ab9814610253578063e4d831bd1461026657600080fd5b80634befe2ca116100f45780634befe2ca146101c4578063551512de146101e05780635afb9bae146101f35780635c975abb146101fb578063715018a61461021257600080fd5b806301b8c42d1461013157806315f6901214610164578063219468f2146101795780633f4ba83a1461018c5780634690484014610194575b600080fd5b61015161013f366004610dd6565b60056020526000908152604090205481565b6040519081526020015b60405180910390f35b610177610172366004610e08565b610316565b005b610177610187366004610e4d565b61037d565b61017761060b565b6002546101ac9061010090046001600160a01b031681565b6040516001600160a01b03909116815260200161015b565b6101cd6101f481565b60405161ffff909116815260200161015b565b6101776101ee366004610ea2565b61061d565b6101cd600a81565b60025460ff165b604051901515815260200161015b565b61017761068b565b61017761069d565b610151610230366004610dd6565b60046020526000908152604090205481565b6000546001600160a01b03166101ac565b610177610261366004610ede565b6106ad565b610279610274366004610f59565b610797565b6040805192835260208301919091520161015b565b61020261029c366004610dd6565b60036020526000908152604090205460ff1681565b6101776102bf366004610dd6565b6107ca565b6101776102d2366004610dd6565b610853565b6101776102e5366004610f7c565b610896565b6102026102f8366004610dd6565b6001600160a01b031660009081526003602052604090205460ff1690565b61031e61094b565b6001600160a01b038216600081815260036020908152604091829020805460ff191685151590811790915591519182527f67821d5384bb02aab1ba91a477f89c9966cd30f475b02618bdc58712bca51275910160405180910390a25050565b610385610978565b61038d6109a2565b6001600160a01b03851660009081526003602052604090205460ff166103c65760405163514e24c360e11b815260040160405180910390fd5b6001600160a01b0384166103ed5760405163c0b6c91960e01b815260040160405180910390fd5b8260000361040e5760405163162908e360e11b815260040160405180910390fd5b600a61ffff8316108061042657506101f461ffff8316115b156104445760405163a724e54f60e01b815260040160405180910390fd5b600061271061045761ffff851686611021565b610461919061103e565b9050600061046f8286611060565b604051636eb1769f60e11b8152336004820152306024820152909150879086906001600160a01b0383169063dd62ed3e90604401602060405180830381865afa1580156104c0573d6000803e3d6000fd5b505050506040513d601f19601f820116820180604052508101906104e49190611073565b1015610503576040516313be252b60e01b815260040160405180910390fd5b6105186001600160a01b0382163389856109c6565b60025461053a906001600160a01b0383811691339161010090910416866109c6565b6001600160a01b0388166000908152600460205260408120805485929061056290849061108c565b90915550506001600160a01b0388166000908152600560205260408120805488929061058f90849061108c565b909155505060408051338152602081018890529081018390526060810184905261ffff861660808201526001600160a01b0380891691908a169086907feda262e3443072d3a4d4e8a06a4d05a7170c71716bce65903f8a60029f1582049060a00160405180910390a450505061060460018055565b5050505050565b61061361094b565b61061b610a2d565b565b61062561094b565b6106396001600160a01b0384168284610a7f565b806001600160a01b0316836001600160a01b03167faaeda929aa102e867049528ec7cd2499e3a2f8846e736ae7935f234dfbf500d98460405161067e91815260200190565b60405180910390a3505050565b61069361094b565b61061b6000610ab5565b6106a561094b565b61061b610b05565b6106b561094b565b60005b828110156107915781600360008686858181106106d7576106d761109f565b90506020020160208101906106ec9190610dd6565b6001600160a01b031681526020810191909152604001600020805460ff19169115159190911790558383828181106107265761072661109f565b905060200201602081019061073b9190610dd6565b6001600160a01b03167f67821d5384bb02aab1ba91a477f89c9966cd30f475b02618bdc58712bca5127583604051610777911515815260200190565b60405180910390a280610789816110b5565b9150506106b8565b50505050565b6000806127106107ab61ffff851686611021565b6107b5919061103e565b90506107c18185611060565b91509250929050565b6107d261094b565b6001600160a01b0381166107f957604051630ed1b8b360e31b815260040160405180910390fd5b600280546001600160a01b03838116610100818102610100600160a81b031985161790945560405193909204169182907faaebcf1bfa00580e41d966056b48521fa9f202645c86d4ddf28113e617c1b1d390600090a35050565b61085b61094b565b6001600160a01b03811661088a57604051631e4fbdf760e01b8152600060048201526024015b60405180910390fd5b61089381610ab5565b50565b61089e610978565b6108a66109a2565b60405163d505accf60e01b8152336004820152306024820152604481018890526064810185905260ff8416608482015260a4810183905260c481018290526001600160a01b038a169063d505accf9060e401600060405180830381600087803b15801561091257600080fd5b505af1158015610926573d6000803e3d6000fd5b505050506109378989898989610b42565b61094060018055565b505050505050505050565b6000546001600160a01b0316331461061b5760405163118cdaa760e01b8152336004820152602401610881565b60026001540361099b57604051633ee5aeb560e01b815260040160405180910390fd5b6002600155565b60025460ff161561061b5760405163d93c066560e01b815260040160405180910390fd5b6040516001600160a01b0384811660248301528381166044830152606482018390526107919186918216906323b872dd906084015b604051602081830303815290604052915060e01b6020820180516001600160e01b038381831617835250505050610d26565b610a35610d97565b6002805460ff191690557f5db9ee0a495bf2e6ff9c91a7834c1ba4fdd244a5e8aa4e537bd38aeae4b073aa335b6040516001600160a01b03909116815260200160405180910390a1565b6040516001600160a01b03838116602483015260448201839052610ab091859182169063a9059cbb906064016109fb565b505050565b600080546001600160a01b038381166001600160a01b0319831681178455604051919092169283917f8be0079c531659141344cd1fd0a4f28419497f9722a3daafe3b4186f6b6457e09190a35050565b610b0d6109a2565b6002805460ff191660011790557f62e78cea01bee320cd4e420270b5ea74000d11b0c9f74754ebdbfc544b05a258610a623390565b6001600160a01b03851660009081526003602052604090205460ff16610b7b5760405163514e24c360e11b815260040160405180910390fd5b6001600160a01b038416610ba25760405163c0b6c91960e01b815260040160405180910390fd5b82600003610bc35760405163162908e360e11b815260040160405180910390fd5b600a61ffff83161080610bdb57506101f461ffff8316115b15610bf95760405163a724e54f60e01b815260040160405180910390fd5b6000612710610c0c61ffff851686611021565b610c16919061103e565b90506000610c248286611060565b905086610c3c6001600160a01b0382163389856109c6565b600254610c5e906001600160a01b0383811691339161010090910416866109c6565b6001600160a01b03881660009081526004602052604081208054859290610c8690849061108c565b90915550506001600160a01b03881660009081526005602052604081208054889290610cb390849061108c565b909155505060408051338152602081018890529081018390526060810184905261ffff861660808201526001600160a01b0380891691908a169086907feda262e3443072d3a4d4e8a06a4d05a7170c71716bce65903f8a60029f1582049060a00160405180910390a45050505050505050565b600080602060008451602086016000885af180610d49576040513d6000823e3d81fd5b50506000513d91508115610d61578060011415610d6e565b6001600160a01b0384163b155b1561079157604051635274afe760e01b81526001600160a01b0385166004820152602401610881565b60025460ff1661061b57604051638dfc202b60e01b815260040160405180910390fd5b80356001600160a01b0381168114610dd157600080fd5b919050565b600060208284031215610de857600080fd5b610df182610dba565b9392505050565b80358015158114610dd157600080fd5b60008060408385031215610e1b57600080fd5b610e2483610dba565b9150610e3260208401610df8565b90509250929050565b803561ffff81168114610dd157600080fd5b600080600080600060a08688031215610e6557600080fd5b610e6e86610dba565b9450610e7c60208701610dba565b935060408601359250610e9160608701610e3b565b949793965091946080013592915050565b600080600060608486031215610eb757600080fd5b610ec084610dba565b925060208401359150610ed560408501610dba565b90509250925092565b600080600060408486031215610ef357600080fd5b833567ffffffffffffffff80821115610f0b57600080fd5b818601915086601f830112610f1f57600080fd5b813581811115610f2e57600080fd5b8760208260051b8501011115610f4357600080fd5b602092830195509350610ed59186019050610df8565b60008060408385031215610f6c57600080fd5b82359150610e3260208401610e3b565b60008060008060008060008060006101208a8c031215610f9b57600080fd5b610fa48a610dba565b9850610fb260208b01610dba565b975060408a01359650610fc760608b01610e3b565b955060808a0135945060a08a0135935060c08a013560ff81168114610feb57600080fd5b8093505060e08a013591506101008a013590509295985092959850929598565b634e487b7160e01b600052601160045260246000fd5b80820281158282048414176110385761103861100b565b92915050565b60008261105b57634e487b7160e01b600052601260045260246000fd5b500490565b818103818111156110385761103861100b565b60006020828403121561108557600080fd5b5051919050565b808201808211156110385761103861100b565b634e487b7160e01b600052603260045260246000fd5b6000600182016110c7576110c761100b565b506001019056fea2646970667358221220857f2ea9005bd76a465106705cde6916017a5754ad079cdde8e8b63cf0cb1c5d64736f6c63430008140033",
  "linkReferences": {},
  "deployedLinkReferences": {}
}