{"contracts/StablePaySplitter.sol":{"StablePaySplitter":{"abi":[{"inputs":[{"internalType":"address","name":"_feeRecipient","type":"address"},{"internalType":"address[]","name":"_initialTokens","type":"address[]"}],"stateMutability":"nonpayable","type":"constructor"},{"inputs":[],"name":"EnforcedPause","type":"error"},{"inputs":[],"name":"ExpectedPause","type":"error"},{"inputs":[],"name":"InsufficientAllowance","type":"error"},{"inputs":[],"name":"InvalidAmount","type":"error"},{"inputs":[],"name":"InvalidFeeBasisPoints","type":"error"},{"inputs":[],"name":"InvalidFeeRecipient","type":"error"},{"inputs":[],"name":"InvalidMerchant","type":"error"},{"inputs":[{"internalType":"address","name":"owner","type":"address"}],"name":"OwnableInvalidOwner","type":"error"},{"inputs":[{"internalType":"address","name":"account","type":"address"}],"name":"OwnableUnauthorizedAccount","type":"error"},{"inputs":[],"name":"ReentrancyGuardReentrantCall","type":"error"},{"inputs":[{"internalType":"address","name":"token","type":"address"}],"name":"SafeERC20FailedOperation","type":"error"},{"inputs":[],"name":"TokenNotAllowed","type":"error"},{"inputs":[],"name":"TransferFailed","type":"error"},{"anonymous":false,"inputs":[{"indexed":true,"internalType":"address","name":"token","type":"address"},{"indexed":false,"internalType":"uint256","name":"amount","type":"uint256"},{"indexed":true,"internalType":"address","name":"to","type":"address"}],"name":"EmergencyWithdraw","type":"event"},{"anonymous":false,"inputs":[{"indexed":true,"internalType":"address","name":"oldRecipient","type":"address"},{"indexed":true,"internalType":"address","name":"newRecipient","type":"address"}],"name":"FeeRecipientUpdated","type":"event"},{"anonymous":false,"inputs":[{"indexed":true,"internalType":"address","name":"previousOwner","type":"address"},{"indexed":true,"internalType":"address","name":"newOwner","type":"address"}],"name":"OwnershipTransferred","type":"event"},{"anonymous":false,"inputs":[{"indexed":false,"internalType":"address","name":"account","type":"address"}],"name":"Paused","type":"event"},{"anonymous":false,"inputs":[{"indexed":true,"internalType":"bytes32","name":"orderId","type":"bytes32"},{"indexed":true,"internalType":"address","name":"token","type":"address"},{"indexed":true,"internalType":"address","name":"merchant","type":"address"},{"indexed":false,"internalType":"address","name":"payer","type":"address"},{"indexed":false,"internalType":"uint256","name":"totalAmount","type":"uint256"},{"indexed":false,"internalType":"uint256","name":"merchantAmount","type":"uint256"},{"indexed":false,"internalType":"uint256","name":"feeAmount","type":"uint256"},{"indexed":false,"internalType":"uint16","name":"feeBasisPoints","type":"uint16"}],"name":"PaymentProcessed","type":"event"},{"anonymous":false,"inputs":[{"indexed":true,"internalType":"address","name":"token","type":"address"},{"indexed":false,"internalType":"bool","name":"allowed","type":"bool"}],"name":"TokenWhitelistUpdated","type":"event"},{"anonymous":false,"inputs":[{"indexed":false,"internalType":"address","name":"account","type":"address"}],"name":"Unpaused","type":"event"},{"inputs":[],"name":"MAX_FEE_BASIS_POINTS","outputs":[{"internalType":"uint16","name":"","type":"uint16"}],"stateMutability":"view","type":"function"},{"inputs":[],"name":"MIN_FEE_BASIS_POINTS","outputs":[{"internalType":"uint16","name":"","type":"uint16"}],"stateMutability":"view","type":"function"},{"inputs":[{"internalType":"address","name":"","type":"address"}],"name":"allowedTokens","outputs":[{"internalType":"bool","name":"","type":"bool"}],"stateMutability":"view","type":"function"},{"inputs":[{"internalType":"uint256","name":"amount","type":"uint256"},{"internalType":"uint16","name":"feeBasisPoints","type":"uint16"}],"name":"calculateSplit","outputs":[{"internalType":"uint256","name":"merchantAmount","type":"uint256"},{"internalType":"uint256","name":"feeAmount","type":"uint256"}],"stateMutability":"pure","type":"function"},{"inputs":[{"internalType":"address","name":"token","type":"address"},{"internalType":"uint256","name":"amount","type":"uint256"},{"internalType":"address","name":"to","type":"address"}],"name":"emergencyWithdraw","outputs":[],"stateMutability":"nonpayable","type":"function"},{"inputs":[],"name":"feeRecipient","outputs":[{"internalType":"address","name":"","type":"address"}],"stateMutability":"view","type":"function"},{"inputs":[{"internalType":"address","name":"token","type":"address"}],"name":"isTokenAllowed","outputs":[{"internalType":"bool","name":"","type":"bool"}],"stateMutability":"view","type":"function"},{"inputs":[],"name":"owner","outputs":[{"internalType":"address","name":"","type":"address"}],"stateMutability":"view","type":"function"},{"inputs":[],"name":"pause","outputs":[],"stateMutability":"nonpayable","type":"function"},{"inputs":[],"name":"paused","outputs":[{"internalType":"bool","name":"","type":"bool"}],"stateMutability":"view","type":"function"},{"inputs":[{"internalType":"address","name":"token","type":"address"},{"internalType":"address","name":"merchant","type":"address"},{"internalType":"uint256","name":"amount","type":"uint256"},{"internalType":"uint16","name":"feeBasisPoints","type":"uint16"},{"internalType":"bytes32","name":"orderId","type":"bytes32"}],"name":"processPayment","outputs":[],"stateMutability":"nonpayable","type":"function"},{"inputs":[{"internalType":"address","name":"token","type":"address"},{"internalType":"address","name":"merchant","type":"address"},{"internalType":"uint256","name":"amount","type":"uint256"},{"internalType":"uint16","name":"feeBasisPoints","type":"uint16"},{"internalType":"bytes32","name":"orderId","type":"bytes32"},{"internalType":"uint256","name":"deadline","type":"uint256"},{"internalType":"uint8","name":"v","type":"uint8"},{"internalType":"bytes32","name":"r","type":"bytes32"},{"internalType":"bytes32","name":"s","type":"bytes32"}],"name":"processPaymentWithPermit","outputs":[],"stateMutability":"nonpayable","type":"function"},{"inputs":[],"name":"renounceOwnership","outputs":[],"stateMutability":"nonpayable","type":"function"},{"inputs":[{"internalType":"address","name":"newFeeRecipient","type":"address"}],"name":"setFeeRecipient","outputs":[],"stateMutability":"nonpayable","type":"function"},{"inputs":[{"internalType":"address","name":"token","type":"address"},{"internalType":"bool","name":"allowed","type":"bool"}],"name":"setTokenAllowed","outputs":[],"stateMutability":"nonpayable","type":"function"},{"inputs":[{"internalType":"address[]","name":"tokens","type":"address[]"},{"internalType":"bool","name":"allowed","type":"bool"}],"name":"setTokensAllowed","outputs":[],"stateMutability":"nonpayable","type":"function"},{"inputs":[{"internalType":"address","name":"","type":"address"}],"name":"totalFeesCollected","outputs":[{"internalType":"uint256","name":"","type":"uint256"}],"stateMutability":"view","type":"function"},{"inputs":[{"internalType":"address","name":"","type":"address"}],"name":"totalVolumeProcessed","outputs":[{"internalType":"uint256","name":"","type":"uint256"}],"stateMutability":"view","type":"function"},{"inputs":[{"internalType":"address","name":"newOwner","type":"address"}],"name":"transferOwnership","outputs":[],"stateMutability":"nonpayable","type":"function"},{"inputs":[],"name":"unpause","outputs":[],"stateMutability":"nonpayable","type":"function"}],"evm":{"bytecode":{"linkReferences":{},"object":"60806040523480156200001157600080fd5b506040516200149138038062001491833981016040819052620000349162000256565b33806200005b57604051631e4fbdf760e01b81526000600482015260240160405180910390fd5b6200006681620001d3565b50600180556001600160a01b0382166200009357604051630ed1b8b360e31b815260040160405180910390fd5b60028054610100600160a81b0319166101006001600160a01b0385160217905560005b8151811015620001ca5760006001600160a01b0316828281518110620000e057620000e06200033f565b60200260200101516001600160a01b031614620001b5576001600360008484815181106200011257620001126200033f565b60200260200101516001600160a01b03166001600160a01b0316815260200190815260200160002060006101000a81548160ff0219169083151502179055508181815181106200016657620001666200033f565b60200260200101516001600160a01b03167f67821d5384bb02aab1ba91a477f89c9966cd30f475b02618bdc58712bca512756001604051620001ac911515815260200190565b60405180910390a25b80620001c18162000355565b915050620000b6565b5050506200037d565b600080546001600160a01b038381166001600160a01b0319831681178455604051919092169283917f8be0079c531659141344cd1fd0a4f28419497f9722a3daafe3b4186f6b6457e09190a35050565b80516001600160a01b03811681146200023b57600080fd5b919050565b634e487b7160e01b600052604160045260246000fd5b600080604083850312156200026a57600080fd5b620002758362000223565b602084810151919350906001600160401b03808211156200029557600080fd5b818601915086601f830112620002aa57600080fd5b815181811115620002bf57620002bf62000240565b8060051b604051601f19603f83011681018181108582111715620002e757620002e762000240565b6040529182528482019250838101850191898311156200030657600080fd5b938501935b828510156200032f576200031f8562000223565b845293850193928501926200030b565b8096505050505050509250929050565b634e487b7160e01b600052603260045260246000fd5b6000600182016200037657634e487b7160e01b600052601160045260246000fd5b5060010190565b611104806200038d6000396000f3fe608060405234801561001057600080fd5b506004361061012c5760003560e01c80638456cb59116100ad578063e744092e11610071578063e744092e1461028e578063e74b981b146102b1578063f2fde38b146102c4578063f9d6628d146102d7578063f9eaee0d146102ea57600080fd5b80638456cb591461021a57806388a40eed146102225780638da5cb5b14610242578063cd85ab9814610253578063e4d831bd1461026657600080fd5b80634befe2ca116100f45780634befe2ca146101c4578063551512de146101e05780635afb9bae146101f35780635c975abb146101fb578063715018a61461021257600080fd5b806301b8c42d1461013157806315f6901214610164578063219468f2146101795780633f4ba83a1461018c5780634690484014610194575b600080fd5b61015161013f366004610dd6565b60056020526000908152604090205481565b6040519081526020015b60405180910390f35b610177610172366004610e08565b610316565b005b610177610187366004610e4d565b61037d565b61017761060b565b6002546101ac9061010090046001600160a01b031681565b6040516001600160a01b03909116815260200161015b565b6101cd6101f481565b60405161ffff909116815260200161015b565b6101776101ee366004610ea2565b61061d565b6101cd600a81565b60025460ff165b604051901515815260200161015b565b61017761068b565b61017761069d565b610151610230366004610dd6565b60046020526000908152604090205481565b6000546001600160a01b03166101ac565b610177610261366004610ede565b6106ad565b610279610274366004610f59565b610797565b6040805192835260208301919091520161015b565b61020261029c366004610dd6565b60036020526000908152604090205460ff1681565b6101776102bf366004610dd6565b6107ca565b6101776102d2366004610dd6565b610853565b6101776102e5366004610f7c565b610896565b6102026102f8366004610dd6565b6001600160a01b031660009081526003602052604090205460ff1690565b61031e61094b565b6001600160a01b038216600081815260036020908152604091829020805460ff191685151590811790915591519182527f67821d5384bb02aab1ba91a477f89c9966cd30f475b02618bdc58712bca51275910160405180910390a25050565b610385610978565b61038d6109a2565b6001600160a01b03851660009081526003602052604090205460ff166103c65760405163514e24c360e11b815260040160405180910390fd5b6001600160a01b0384166103ed5760405163c0b6c91960e01b815260040160405180910390fd5b8260000361040e5760405163162908e360e11b815260040160405180910390fd5b600a61ffff8316108061042657506101f461ffff8316115b156104445760405163a724e54f60e01b815260040160405180910390fd5b600061271061045761ffff851686611021565b610461919061103e565b9050600061046f8286611060565b604051636eb1769f60e11b8152336004820152306024820152909150879086906001600160a01b0383169063dd62ed3e90604401602060405180830381865afa1580156104c0573d6000803e3d6000fd5b505050506040513d601f19601f820116820180604052508101906104e49190611073565b1015610503576040516313be252b60e01b815260040160405180910390fd5b6105186001600160a01b0382163389856109c6565b60025461053a906001600160a01b0383811691339161010090910416866109c6565b6001600160a01b0388166000908152600460205260408120805485929061056290849061108c565b90915550506001600160a01b0388166000908152600560205260408120805488929061058f90849061108c565b909155505060408051338152602081018890529081018390526060810184905261ffff861660808201526001600160a01b0380891691908a169086907feda262e3443072d3a4d4e8a06a4d05a7170c71716bce65903f8a60029f1582049060a00160405180910390a450505061060460018055565b5050505050565b61061361094b565b61061b610a2d565b565b61062561094b565b6106396001600160a01b0384168284610a7f565b806001600160a01b0316836001600160a01b03167faaeda929aa102e867049528ec7cd2499e3a2f8846e736ae7935f234dfbf500d98460405161067e91815260200190565b60405180910390a3505050565b61069361094b565b61061b6000610ab5565b6106a561094b565b61061b610b05565b6106b561094b565b60005b828110156107915781600360008686858181106106d7576106d761109f565b90506020020160208101906106ec9190610dd6565b6001600160a01b031681526020810191909152604001600020805460ff19169115159190911790558383828181106107265761072661109f565b905060200201602081019061073b9190610dd6565b6001600160a01b03167f67821d5384bb02aab1ba91a477f89c9966cd30f475b02618bdc58712bca5127583604051610777911515815260200190565b60405180910390a280610789816110b5565b9150506106b8565b50505050565b6000806127106107ab61ffff851686611021565b6107b5919061103e565b90506107c18185611060565b91509250929050565b6107d261094b565b6001600160a01b0381166107f957604051630ed1b8b360e31b815260040160405180910390fd5b600280546001600160a01b03838116610100818102610100600160a81b031985161790945560405193909204169182907faaebcf1bfa00580e41d966056b48521fa9f202645c86d4ddf28113e617c1b1d390600090a35050565b61085b61094b565b6001600160a01b03811661088a57604051631e4fbdf760e01b8152600060048201526024015b60405180910390fd5b61089381610ab5565b50565b61089e610978565b6108a66109a2565b60405163d505accf60e01b8152336004820152306024820152604481018890526064810185905260ff8416608482015260a4810183905260c481018290526001600160a01b038a169063d505accf9060e401600060405180830381600087803b15801561091257600080fd5b505af1158015610926573d6000803e3d6000fd5b505050506109378989898989610b42565b61094060018055565b505050505050505050565b6000546001600160a01b0316331461061b5760405163118cdaa760e01b8152336004820152602401610881565b60026001540361099b57604051633ee5aeb560e01b815260040160405180910390fd5b6002600155565b60025460ff161561061b5760405163d93c066560e01b815260040160405180910390fd5b6040516001600160a01b0384811660248301528381166044830152606482018390526107919186918216906323b872dd906084015b604051602081830303815290604052915060e01b6020820180516001600160e01b038381831617835250505050610d26565b610a35610d97565b6002805460ff191690557f5db9ee0a495bf2e6ff9c91a7834c1ba4fdd244a5e8aa4e537bd38aeae4b073aa335b6040516001600160a01b03909116815260200160405180910390a1565b6040516001600160a01b03838116602483015260448201839052610ab091859182169063a9059cbb906064016109fb565b505050565b600080546001600160a01b038381166001600160a01b0319831681178455604051919092169283917f8be0079c531659141344cd1fd0a4f28419497f9722a3daafe3b4186f6b6457e09190a35050565b610b0d6109a2565b6002805460ff191660011790557f62e78cea01bee320cd4e420270b5ea74000d11b0c9f74754ebdbfc544b05a258610a623390565b6001600160a01b03851660009081526003602052604090205460ff16610b7b5760405163514e24c360e11b815260040160405180910390fd5b6001600160a01b038416610ba25760405163c0b6c91960e01b815260040160405180910390fd5b82600003610bc35760405163162908e360e11b815260040160405180910390fd5b600a61ffff83161080610bdb57506101f461ffff8316115b15610bf95760405163a724e54f60e01b815260040160405180910390fd5b6000612710610c0c61ffff851686611021565b610c16919061103e565b90506000610c248286611060565b905086610c3c6001600160a01b0382163389856109c6565b600254610c5e906001600160a01b0383811691339161010090910416866109c6565b6001600160a01b03881660009081526004602052604081208054859290610c8690849061108c565b90915550506001600160a01b03881660009081526005602052604081208054889290610cb390849061108c565b909155505060408051338152602081018890529081018390526060810184905261ffff861660808201526001600160a01b0380891691908a169086907feda262e3443072d3a4d4e8a06a4d05a7170c71716bce65903f8a60029f1582049060a00160405180910390a45050505050505050565b600080602060008451602086016000885af180610d49576040513d6000823e3d81fd5b50506000513d91508115610d61578060011415610d6e565b6001600160a01b0384163b155b1561079157604051635274afe760e01b81526001600160a01b0385166004820152602401610881565b60025460ff1661061b57604051638dfc202b60e01b815260040160405180910390fd5b80356001600160a01b0381168114610dd157600080fd5b919050565b600060208284031215610de857600080fd5b610df182610dba565b9392505050565b80358015158114610dd157600080fd5b60008060408385031215610e1b57600080fd5b610e2483610dba565b9150610e3260208401610df8565b90509250929050565b803561ffff81168114610dd157600080fd5b600080600080600060a08688031215610e6557600080fd5b610e6e86610dba565b9450610e7c60208701610dba565b935060408601359250610e9160608701610e3b565b949793965091946080013592915050565b600080600060608486031215610eb757600080fd5b610ec084610dba565b925060208401359150610ed560408501610dba565b90509250925092565b600080600060408486031215610ef357600080fd5b833567ffffffffffffffff80821115610f0b57600080fd5b818601915086601f830112610f1f57600080fd5b813581811115610f2e57600080fd5b8760208260051b8501011115610f4357600080fd5b602092830195509350610ed59186019050610df8565b60008060408385031215610f6c57600080fd5b82359150610e3260208401610e3b565b60008060008060008060008060006101208a8c031215610f9b57600080fd5b610fa48a610dba565b9850610fb260208b01610dba565b975060408a01359650610fc760608b01610e3b565b955060808a0135945060a08a0135935060c08a013560ff81168114610feb57600080fd5b8093505060e08a013591506101008a013590509295985092959850929598565b634e487b7160e01b600052601160045260246000fd5b80820281158282048414176110385761103861100b565b92915050565b60008261105b57634e487b7160e01b600052601260045260246000fd5b500490565b818103818111156110385761103861100b565b60006020828403121561108557600080fd5b5051919050565b808201808211156110385761103861100b565b634e487b7160e01b600052603260045260246000fd5b6000600182016110c7576110c761100b565b506001019056fea2646970667358221220857f2ea9005bd76a465106705cde6916017a5754ad079cdde8e8b63cf0cb1c5d64736f6c63430008140033","opcodes":"PUSH1 0x80 PUSH1 0x40 MSTORE CALLVALUE DUP1 ISZERO PUSH3 0x11 JUMPI PUSH1 0x0 DUP1 REVERT JUMPDEST POP PUSH1 0x40 MLOAD PUSH3 0x1491 CODESIZE SUB DUP1 PUSH3 0x1491 DUP4 CODECOPY DUP2 ADD PUSH1 0x40 DUP2 SWAP1 MSTORE PUSH3 0x34 SWAP2 PUSH3 0x256 JUMP JUMPDEST CALLER DUP1 PUSH3 0x5B JUMPI PUSH1 0x40 MLOAD PUSH4 0x1E4FBDF7 PUSH1 0xE0 SHL DUP2 MSTORE PUSH1 0x0 PUSH1 0x4 DUP3 ADD MSTORE PUSH1 0x24 ADD PUSH1 0x40 MLOAD DUP1 SWAP2 SUB SWAP1 REVERT JUMPDEST PUSH3 0x66 DUP2 PUSH3 0x1D3 JUMP JUMPDEST POP PUSH1 0x1 DUP1 SSTORE PUSH1 0x1 PUSH1 0x1 PUSH1 0xA0 SHL SUB DUP3 AND PUSH3 0x93 JUMPI PUSH1 0x40 MLOAD PUSH4 0xED1B8B3 PUSH1 0xE3 SHL DUP2 MSTORE PUSH1 0x4 ADD PUSH1 0x40 MLOAD DUP1 SWAP2 SUB SWAP1 REVERT JUMPDEST PUSH1 0x2 DUP1 SLOAD PUSH2 0x100 PUSH1 0x1 PUSH1 0xA8 SHL SUB NOT AND PUSH2 0x100 PUSH1 0x1 PUSH1 0x1 PUSH1 0xA0 SHL SUB DUP6 AND MUL OR SWAP1 SSTORE PUSH1 0x0 JUMPDEST DUP2 MLOAD DUP2 LT ISZERO PUSH3 0x1CA JUMPI PUSH1 0x0 PUSH1 0x1 PUSH1 0x1 PUSH1 0xA0 SHL SUB AND DUP3 DUP3 DUP2 MLOAD DUP2 LT PUSH3 0xE0 JUMPI PUSH3 0xE0 PUSH3 0x33F JUMP JUMPDEST PUSH1 0x20 MUL PUSH1 0x20 ADD ADD MLOAD PUSH1 0x1 PUSH1 0x1 PUSH1 0xA0 SHL SUB AND EQ PUSH3 0x1B5 JUMPI PUSH1 0x1 PUSH1 0x3 PUSH1 0x0 DUP5 DUP5 DUP2 MLOAD DUP2 LT PUSH3 0x112 JUMPI PUSH3 0x112 PUSH3 0x33F JUMP JUMPDEST PUSH1 0x20 MUL PUSH1 0x20 ADD ADD MLOAD PUSH1 0x1 PUSH1 0x1 PUSH1 0xA0 SHL SUB AND PUSH1 0x1 PUSH1 0x1 PUSH1 0xA0 SHL SUB AND DUP2 MSTORE PUSH1 0x20 ADD SWAP1 DUP2 MSTORE PUSH1 0x20 ADD PUSH1 0x0 KECCAK256 PUSH1 0x0 PUSH2 0x100 EXP DUP2 SLOAD DUP2 PUSH1 0xFF MUL NOT AND SWAP1 DUP4 ISZERO ISZERO MUL OR SWAP1 SSTORE POP DUP2 DUP2 DUP2 MLOAD DUP2 LT PUSH3 0x166 JUMPI PUSH3 0x166 PUSH3 0x33F JUMP JUMPDEST PUSH1 0x20 MUL PUSH1 0x20 ADD ADD MLOAD PUSH1 0x1 PUSH1 0x1 PUSH1 0xA0 SHL SUB AND PUSH32 0x67821D5384BB02AAB1BA91A477F89C9966CD30F475B02618BDC58712BCA51275 PUSH1 0x1 PUSH1 0x40 MLOAD PUSH3 0x1AC SWAP2 ISZERO ISZERO DUP2 MSTORE PUSH1 0x20 ADD SWAP1 JUMP JUMPDEST PUSH1 0x40 MLOAD DUP1 SWAP2 SUB SWAP1 LOG2 JUMPDEST DUP1 PUSH3 0x1C1 DUP2 PUSH3 0x355 JUMP JUMPDEST SWAP2 POP POP PUSH3 0xB6 JUMP JUMPDEST POP POP POP PUSH3 0x37D JUMP JUMPDEST PUSH1 0x0 DUP1 SLOAD PUSH1 0x1 PUSH1 0x1 PUSH1 0xA0 SHL SUB DUP4 DUP2 AND PUSH1 0x1 PUSH1 0x1 PUSH1 0xA0 SHL SUB NOT DUP4 AND DUP2 OR DUP5 SSTORE PUSH1 0x40 MLOAD SWAP2 SWAP1 SWAP3 AND SWAP3 DUP4 SWAP2 PUSH32 0x8BE0079C531659141344CD1FD0A4F28419497F9722A3DAAFE3B4186F6B6457E0 SWAP2 SWAP1 LOG3 POP POP JUMP JUMPDEST DUP1 MLOAD PUSH1 0x1 PUSH1 0x1 PUSH1 0xA0 SHL SUB DUP2 AND DUP2 EQ PUSH3 0x23B JUMPI PUSH1 0x0 DUP1 REVERT JUMPDEST SWAP2 SWAP1 POP JUMP JUMPDEST PUSH4 0x4E487B71 PUSH1 0xE0 SHL PUSH1 0x0 MSTORE PUSH1 0x41 PUSH1 0x4 MSTORE PUSH1 0x24 PUSH1 0x0 REVERT JUMPDEST PUSH1 0x0 DUP1 PUSH1 0x40 DUP4 DUP6 SUB SLT ISZERO PUSH3 0x26A JUMPI PUSH1 0x0 DUP1 REVERT JUMPDEST PUSH3 0x275 DUP4 PUSH3 0x223 JUMP JUMPDEST PUSH1 0x20 DUP5 DUP2 ADD MLOAD SWAP2 SWAP4 POP SWAP1 PUSH1 0x1 PUSH1 0x1 PUSH1 0x40 SHL SUB DUP1 DUP3 GT ISZERO PUSH3 0x295 JUMPI PUSH1 0x0 DUP1 REVERT JUMPDEST DUP2 DUP7 ADD SWAP2 POP DUP7 PUSH1 0x1F DUP4 ADD SLT PUSH3 0x2AA JUMPI PUSH1 0x0 DUP1 REVERT JUMPDEST DUP2 MLOAD DUP2 DUP2 GT ISZERO PUSH3 0x2BF JUMPI PUSH3 0x2BF PUSH3 0x240 JUMP JUMPDEST DUP1 PUSH1 0x5 SHL PUSH1 0x40 MLOAD PUSH1 0x1F NOT PUSH1 0x3F DUP4 ADD AND DUP2 ADD DUP2 DUP2 LT DUP6 DUP3 GT OR ISZERO PUSH3 0x2E7 JUMPI PUSH3 0x2E7 PUSH3 0x240 JUMP JUMPDEST PUSH1 0x40 MSTORE SWAP2 DUP3 MSTORE DUP5 DUP3 ADD SWAP3 POP DUP4 DUP2 ADD DUP6 ADD SWAP2 DUP10 DUP4 GT ISZERO PUSH3 0x306 JUMPI PUSH1 0x0 DUP1 REVERT JUMPDEST SWAP4 DUP6 ADD SWAP4 JUMPDEST DUP3 DUP6 LT ISZERO PUSH3 0x32F JUMPI PUSH3 0x31F DUP6 PUSH3 0x223 JUMP JUMPDEST DUP5 MSTORE SWAP4 DUP6 ADD SWAP4 SWAP3 DUP6 ADD SWAP3 PUSH3 0x30B JUMP JUMPDEST DUP1 SWAP7 POP POP POP POP POP POP POP SWAP3 POP SWAP3 SWAP1 POP JUMP JUMPDEST PUSH4 0x4E487B71 PUSH1 0xE0 SHL PUSH1 0x0 MSTORE PUSH1 0x32 PUSH1 0x4 MSTORE PUSH1 0x24 PUSH1 0x0 REVERT JUMPDEST PUSH1 0x0 PUSH1 0x1 DUP3 ADD PUSH3 0x376 JUMPI PUSH4 0x4E487B71 PUSH1 0xE0 SHL PUSH1 0x0 MSTORE PUSH1 0x11 PUSH1 0x4 MSTORE PUSH1 0x24 PUSH1 0x0 REVERT JUMPDEST POP PUSH1 0x1 ADD SWAP1 JUMP JUMPDEST PUSH2 0x1104 DUP1 PUSH3 0x38D PUSH1 0x0 CODECOPY PUSH1 0x0 RETURN INVALID PUSH1 0x80 PUSH1 0x40 MSTORE CALLVALUE DUP1 ISZERO PUSH2 0x10 JUMPI PUSH1 0x0 DUP1 REVERT JUMPDEST POP PUSH1 0x4 CALLDATASIZE LT PUSH2 0x12C JUMPI PUSH1 0x0 CALLDATALOAD PUSH1 0xE0 SHR DUP1 PUSH4 0x8456CB59 GT PUSH2 0xAD JUMPI DUP1 PUSH4 0xE744092E GT PUSH2 0x71 JUMPI DUP1 PUSH4 0xE744092E EQ PUSH2 0x28E JUMPI DUP1 PUSH4 0xE74B981B EQ PUSH2 0x2B1 JUMPI DUP1 PUSH4 0xF2FDE38B EQ PUSH2 0x2C4 JUMPI DUP1 PUSH4 0xF9D6628D EQ PUSH2 0x2D7 JUMPI DUP1 PUSH4 0xF9EAEE0D EQ PUSH2 0x2EA JUMPI PUSH1 0x0 DUP1 REVERT JUMPDEST DUP1 PUSH4 0x8456CB59 EQ PUSH2 0x21A JUMPI DUP1 PUSH4 0x88A40EED EQ PUSH2 0x222 JUMPI DUP1 PUSH4 0x8DA5CB5B EQ PUSH2 0x242 JUMPI DUP1 PUSH4 0xCD85AB98 EQ PUSH2 0x253 JUMPI DUP1 PUSH4 0xE4D831BD EQ PUSH2 0x266 JUMPI PUSH1 0x0 DUP1 REVERT JUMPDEST DUP1 PUSH4 0x4BEFE2CA GT PUSH2 0xF4 JUMPI DUP1 PUSH4 0x4BEFE2CA EQ PUSH2 0x1C4 JUMPI DUP1 PUSH4 0x551512DE EQ PUSH2 0x1E0 JUMPI DUP1 PUSH4 0x5AFB9BAE EQ PUSH2 0x1F3 JUMPI DUP1 PUSH4 0x5C975ABB EQ PUSH2 0x1FB JUMPI DUP1 PUSH4 0x715018A6 EQ PUSH2 0x212 JUMPI PUSH1 0x0 DUP1 REVERT JUMPDEST DUP1 PUSH4 0x1B8C42D EQ PUSH2 0x131 JUMPI DUP1 PUSH4 0x15F69012 EQ PUSH2 0x164 JUMPI DUP1 PUSH4 0x219468F2 EQ PUSH2 0x179 JUMPI DUP1 PUSH4 0x3F4BA83A EQ PUSH2 0x18C JUMPI DUP1 PUSH4 0x46904840 EQ PUSH2 0x194 JUMPI JUMPDEST PUSH1 0x0 DUP1 REVERT JUMPDEST PUSH2 0x151 PUSH2 0x13F CALLDATASIZE PUSH1 0x4 PUSH2 0xDD6 JUMP JUMPDEST PUSH1 0x5 PUSH1 0x20 MSTORE PUSH1 0x0 SWAP1 DUP2 MSTORE PUSH1 0x40 SWAP1 KECCAK256 SLOAD DUP2 JUMP JUMPDEST PUSH1 0x40 MLOAD SWAP1 DUP2 MSTORE PUSH1 0x20 ADD JUMPDEST PUSH1 0x40 MLOAD DUP1 SWAP2 SUB SWAP1 RETURN JUMPDEST PUSH2 0x177 PUSH2 0x172 CALLDATASIZE PUSH1 0x4 PUSH2 0xE08 JUMP JUMPDEST PUSH2 0x316 JUMP JUMPDEST STOP JUMPDEST PUSH2 0x177 PUSH2 0x187 CALLDATASIZE PUSH1 0x4 PUSH2 0xE4D JUMP JUMPDEST PUSH2 0x37D JUMP JUMPDEST PUSH2 0x177 PUSH2 0x60B JUMP JUMPDEST PUSH1 0x2 SLOAD PUSH2 0x1AC SWAP1 PUSH2 0x100 SWAP1 DIV PUSH1 0x1 PUSH1 0x1 PUSH1 0xA0 SHL SUB AND DUP2 JUMP JUMPDEST PUSH1 0x40 MLOAD PUSH1 0x1 PUSH1 0x1 PUSH1 0xA0 SHL SUB SWAP1 SWAP2 AND DUP2 MSTORE PUSH1 0x20 ADD PUSH2 0x15B JUMP JUMPDEST PUSH2 0x1CD PUSH2 0x1F4 DUP2 JUMP JUMPDEST PUSH1 0x40 MLOAD PUSH2 0xFFFF SWAP1 SWAP2 AND DUP2 MSTORE PUSH1 0x20 ADD PUSH2 0x15B JUMP JUMPDEST PUSH2 0x177 PUSH2 0x1EE CALLDATASIZE PUSH1 0x4 PUSH2 0xEA2 JUMP JUMPDEST PUSH2 0x61D JUMP JUMPDEST PUSH2 0x1CD PUSH1 0xA DUP2 JUMP JUMPDEST PUSH1 0x2 SLOAD PUSH1 0xFF AND JUMPDEST PUSH1 0x40 MLOAD SWAP1 ISZERO ISZERO DUP2 MSTORE PUSH1 0x20 ADD PUSH2 0x15B JUMP JUMPDEST PUSH2 0x177 PUSH2 0x68B JUMP JUMPDEST PUSH2 0x177 PUSH2 0x69D JUMP JUMPDEST PUSH2 0x151 PUSH2 0x230 CALLDATASIZE PUSH1 0x4 PUSH2 0xDD6 JUMP JUMPDEST PUSH1 0x4 PUSH1 0x20 MSTORE PUSH1 0x0 SWAP1 DUP2 MSTORE PUSH1 0x40 SWAP1 KECCAK256 SLOAD DUP2 JUMP JUMPDEST PUSH1 0x0 SLOAD PUSH1 0x1 PUSH1 0x1 PUSH1 0xA0 SHL SUB AND PUSH2 0x1AC JUMP JUMPDEST PUSH2 0x177 PUSH2 0x261 CALLDATASIZE PUSH1 0x4 PUSH2 0xEDE JUMP JUMPDEST PUSH2 0x6AD JUMP JUMPDEST PUSH2 0x279 PUSH2 0x274 CALLDATASIZE PUSH1 0x4 PUSH2 0xF59 JUMP JUMPDEST PUSH2 0x797 JUMP JUMPDEST PUSH1 0x40 DUP1 MLOAD SWAP3 DUP4 MSTORE PUSH1 0x20 DUP4 ADD SWAP2 SWAP1 SWAP2 MSTORE ADD PUSH2 0x15B JUMP JUMPDEST PUSH2 0x202 PUSH2 0x29C CALLDATASIZE PUSH1 0x4 PUSH2 0xDD6 JUMP JUMPDEST PUSH1 0x3 PUSH1 0x20 MSTORE PUSH1 0x0 SWAP1 DUP2 MSTORE PUSH1 0x40 SWAP1 KECCAK256 SLOAD PUSH1 0xFF AND DUP2 JUMP JUMPDEST PUSH2 0x177 PUSH2 0x2BF CALLDATASIZE PUSH1 0x4 PUSH2 0xDD6 JUMP JUMPDEST PUSH2 0x7CA JUMP JUMPDEST PUSH2 0x177 PUSH2 0x2D2 CALLDATASIZE PUSH1 0x4 PUSH2 0xDD6 JUMP JUMPDEST PUSH2 0x853 JUMP JUMPDEST PUSH2 0x177 PUSH2 0x2E5 CALLDATASIZE PUSH1 0x4 PUSH2 0xF7C JUMP JUMPDEST PUSH2 0x896 JUMP JUMPDEST PUSH2 0x202 PUSH2 0x2F8 CALLDATASIZE PUSH1 0x4 PUSH2 0xDD6 JUMP JUMPDEST PUSH1 0x1 PUSH1 0x1 PUSH1 0xA0 SHL SUB AND PUSH1 0x0 SWAP1 DUP2 MSTORE PUSH1 0x3 PUSH1 0x20 MSTORE PUSH1 0x40 SWAP1 KECCAK256 SLOAD PUSH1 0xFF AND SWAP1 JUMP JUMPDEST PUSH2 0x31E PUSH2 0x94B JUMP JUMPDEST PUSH1 0x1 PUSH1 0x1 PUSH1 0xA0 SHL SUB DUP3 AND PUSH1 0x0 DUP2 DUP2 MSTORE PUSH1 0x3 PUSH1 0x20 SWAP1 DUP2 MSTORE PUSH1 0x40 SWAP2 DUP3 SWAP1 KECCAK256 DUP1 SLOAD PUSH1 0xFF NOT AND DUP6 ISZERO ISZERO SWAP1 DUP2 OR SWAP1 SWAP2 SSTORE SWAP2 MLOAD SWAP2 DUP3 MSTORE PUSH32 0x67821D5384BB02AAB1BA91A477F89C9966CD30F475B02618BDC58712BCA51275 SWAP2 ADD PUSH1 0x40 MLOAD DUP1 SWAP2 SUB SWAP1 LOG2 POP POP JUMP JUMPDEST PUSH2 0x385 PUSH2 0x978 JUMP JUMPDEST PUSH2 0x38D PUSH2 0x9A2 JUMP JUMPDEST PUSH1 0x1 PUSH1 0x1 PUSH1 0xA0 SHL SUB DUP6 AND PUSH1 0x0 SWAP1 DUP2 MSTORE PUSH1 0x3 PUSH1 0x20 MSTORE PUSH1 0x40 SWAP1 KECCAK256 SLOAD PUSH1 0xFF AND PUSH2 0x3C6 JUMPI PUSH1 0x40 MLOAD PUSH4 0x514E24C3 PUSH1 0xE1 SHL DUP2 MSTORE PUSH1 0x4 ADD PUSH1 0x40 MLOAD DUP1 SWAP2 SUB SWAP1 REVERT JUMPDEST PUSH1 0x1 PUSH1 0x1 PUSH1 0xA0 SHL SUB DUP5 AND PUSH2 0x3ED JUMPI PUSH1 0x40 MLOAD PUSH4 0xC0B6C919 PUSH1 0xE0 SHL DUP2 MSTORE PUSH1 0x4 ADD PUSH1 0x40 MLOAD DUP1 SWAP2 SUB SWAP1 REVERT JUMPDEST DUP3 PUSH1 0x0 SUB PUSH2 0x40E JUMPI PUSH1 0x40 MLOAD PUSH4 0x162908E3 PUSH1 0xE1 SHL DUP2 MSTORE PUSH1 0x4 ADD PUSH1 0x40 MLOAD DUP1 SWAP2 SUB SWAP1 REVERT JUMPDEST PUSH1 0xA PUSH2 0xFFFF DUP4 AND LT DUP1 PUSH2 0x426 JUMPI POP PUSH2 0x1F4 PUSH2 0xFFFF DUP4 AND GT JUMPDEST ISZERO PUSH2 0x444 JUMPI PUSH1 0x40 MLOAD PUSH4 0xA724E54F PUSH1 0xE0 SHL DUP2 MSTORE PUSH1 0x4 ADD PUSH1 0x40 MLOAD DUP1 SWAP2 SUB SWAP1 REVERT JUMPDEST PUSH1 0x0 PUSH2 0x2710 PUSH2 0x457 PUSH2 0xFFFF DUP6 AND DUP7 PUSH2 0x1021 JUMP JUMPDEST PUSH2 0x461 SWAP2 SWAP1 PUSH2 0x103E JUMP JUMPDEST SWAP1 POP PUSH1 0x0 PUSH2 0x46F DUP3 DUP7 PUSH2 0x1060 JUMP JUMPDEST PUSH1 0x40 MLOAD PUSH4 0x6EB1769F PUSH1 0xE1 SHL DUP2 MSTORE CALLER PUSH1 0x4 DUP3 ADD MSTORE ADDRESS PUSH1 0x24 DUP3 ADD MSTORE SWAP1 SWAP2 POP DUP8 SWAP1 DUP7 SWAP1 PUSH1 0x1 PUSH1 0x1 PUSH1 0xA0 SHL SUB DUP4 AND SWAP1 PUSH4 0xDD62ED3E SWAP1 PUSH1 0x44 ADD PUSH1 0x20 PUSH1 0x40 MLOAD DUP1 DUP4 SUB DUP2 DUP7 GAS STATICCALL ISZERO DUP1 ISZERO PUSH2 0x4C0 JUMPI RETURNDATASIZE PUSH1 0x0 DUP1 RETURNDATACOPY RETURNDATASIZE PUSH1 0x0 REVERT JUMPDEST POP POP POP POP PUSH1 0x40 MLOAD RETURNDATASIZE PUSH1 0x1F NOT PUSH1 0x1F DUP3 ADD AND DUP3 ADD DUP1 PUSH1 0x40 MSTORE POP DUP2 ADD SWAP1 PUSH2 0x4E4 SWAP2 SWAP1 PUSH2 0x1073 JUMP JUMPDEST LT ISZERO PUSH2 0x503 JUMPI PUSH1 0x40 MLOAD PUSH4 0x13BE252B PUSH1 0xE0 SHL DUP2 MSTORE PUSH1 0x4 ADD PUSH1 0x40 MLOAD DUP1 SWAP2 SUB SWAP1 REVERT JUMPDEST PUSH2 0x518 PUSH1 0x1 PUSH1 0x1 PUSH1 0xA0 SHL SUB DUP3 AND CALLER DUP10 DUP6 PUSH2 0x9C6 JUMP JUMPDEST PUSH1 0x2 SLOAD PUSH2 0x53A SWAP1 PUSH1 0x1 PUSH1 0x1 PUSH1 0xA0 SHL SUB DUP4 DUP2 AND SWAP2 CALLER SWAP2 PUSH2 0x100 SWAP1 SWAP2 DIV AND DUP7 PUSH2 0x9C6 JUMP JUMPDEST PUSH1 0x1 PUSH1 0x1 PUSH1 0xA0 SHL SUB DUP9 AND PUSH1 0x0 SWAP1 DUP2 MSTORE PUSH1 0x4 PUSH1 0x20 MSTORE PUSH1 0x40 DUP2 KECCAK256 DUP1 SLOAD DUP6 SWAP3 SWAP1 PUSH2 0x562 SWAP1 DUP5 SWAP1 PUSH2 0x108C JUMP JUMPDEST SWAP1 SWAP2 SSTORE POP POP PUSH1 0x1 PUSH1 0x1 PUSH1 0xA0 SHL SUB DUP9 AND PUSH1 0x0 SWAP1 DUP2 MSTORE PUSH1 0x5 PUSH1 0x20 MSTORE PUSH1 0x40 DUP2 KECCAK256 DUP1 SLOAD DUP9 SWAP3 SWAP1 PUSH2 0x58F SWAP1 DUP5 SWAP1 PUSH2 0x108C JUMP JUMPDEST SWAP1 SWAP2 SSTORE POP POP PUSH1 0x40 DUP1 MLOAD CALLER DUP2 MSTORE PUSH1 0x20 DUP2 ADD DUP9 SWAP1 MSTORE SWAP1 DUP2 ADD DUP4 SWAP1 MSTORE PUSH1 0x60 DUP2 ADD DUP5 SWAP1 MSTORE PUSH2 0xFFFF DUP7 AND PUSH1 0x80 DUP3 ADD MSTORE PUSH1 0x1 PUSH1 0x1 PUSH1 0xA0 SHL SUB DUP1 DUP10 AND SWAP2 SWAP1 DUP11 AND SWAP1 DUP7 SWAP1 PUSH32 0xEDA262E3443072D3A4D4E8A06A4D05A7170C71716BCE65903F8A60029F158204 SWAP1 PUSH1 0xA0 ADD PUSH1 0x40 MLOAD DUP1 SWAP2 SUB SWAP1 LOG4 POP POP POP PUSH2 0x604 PUSH1 0x1 DUP1 SSTORE JUMP JUMPDEST POP POP POP POP POP JUMP JUMPDEST PUSH2 0x613 PUSH2 0x94B JUMP JUMPDEST PUSH2 0x61B PUSH2 0xA2D JUMP JUMPDEST JUMP JUMPDEST PUSH2 0x625 PUSH2 0x94B JUMP JUMPDEST PUSH2 0x639 PUSH1 0x1 PUSH1 0x1 PUSH1 0xA0 SHL SUB DUP5 AND DUP3 DUP5 PUSH2 0xA7F JUMP JUMPDEST DUP1 PUSH1 0x1 PUSH1 0x1 PUSH1 0xA0 SHL SUB AND DUP4 PUSH1 0x1 PUSH1 0x1 PUSH1 0xA0 SHL SUB AND PUSH32 0xAAEDA929AA102E867049528EC7CD2499E3A2F8846E736AE7935F234DFBF500D9 DUP5 PUSH1 0x40 MLOAD PUSH2 0x67E SWAP2 DUP2 MSTORE PUSH1 0x20 ADD SWAP1 JUMP JUMPDEST PUSH1 0x40 MLOAD DUP1 SWAP2 SUB SWAP1 LOG3 POP POP POP JUMP JUMPDEST PUSH2 0x693 PUSH2 0x94B JUMP JUMPDEST PUSH2 0x61B PUSH1 0x0 PUSH2 0xAB5 JUMP JUMPDEST PUSH2 0x6A5 PUSH2 0x94B JUMP JUMPDEST PUSH2 0x61B PUSH2 0xB05 JUMP JUMPDEST PUSH2 0x6B5 PUSH2 0x94B JUMP JUMPDEST PUSH1 0x0 JUMPDEST DUP3 DUP2 LT ISZERO PUSH2 0x791 JUMPI DUP2 PUSH1 0x3 PUSH1 0x0 DUP7 DUP7 DUP6 DUP2 DUP2 LT PUSH2 0x6D7 JUMPI PUSH2 0x6D7 PUSH2 0x109F JUMP JUMPDEST SWAP1 POP PUSH1 0x20 MUL ADD PUSH1 0x20 DUP2 ADD SWAP1 PUSH2 0x6EC SWAP2 SWAP1 PUSH2 0xDD6 JUMP JUMPDEST PUSH1 0x1 PUSH1 0x1 PUSH1 0xA0 SHL SUB AND DUP2 MSTORE PUSH1 0x20 DUP2 ADD SWAP2 SWAP1 SWAP2 MSTORE PUSH1 0x40 ADD PUSH1 0x0 KECCAK256 DUP1 SLOAD PUSH1 0xFF NOT AND SWAP2 ISZERO ISZERO SWAP2 SWAP1 SWAP2 OR SWAP1 SSTORE DUP4 DUP4 DUP3 DUP2 DUP2 LT PUSH2 0x726 JUMPI PUSH2 0x726 PUSH2 0x109F JUMP JUMPDEST SWAP1 POP PUSH1 0x20 MUL ADD PUSH1 0x20 DUP2 ADD SWAP1 PUSH2 0x73B SWAP2 SWAP1 PUSH2 0xDD6 JUMP JUMPDEST PUSH1 0x1 PUSH1 0x1 PUSH1 0xA0 SHL SUB AND PUSH32 0x67821D5384BB02AAB1BA91A477F89C9966CD30F475B02618BDC58712BCA51275 DUP4 PUSH1 0x40 MLOAD PUSH2 0x777 SWAP2 ISZERO ISZERO DUP2 MSTORE PUSH1 0x20 ADD SWAP1 JUMP JUMPDEST PUSH1 0x40 MLOAD DUP1 SWAP2 SUB SWAP1 LOG2 DUP1 PUSH2 0x789 DUP2 PUSH2 0x10B5 JUMP JUMPDEST SWAP2 POP POP PUSH2 0x6B8 JUMP JUMPDEST POP POP POP POP JUMP JUMPDEST PUSH1 0x0 DUP1 PUSH2 0x2710 PUSH2 0x7AB PUSH2 0xFFFF DUP6 AND DUP7 PUSH2 0x1021 JUMP JUMPDEST PUSH2 0x7B5 SWAP2 SWAP1 PUSH2 0x103E JUMP JUMPDEST SWAP1 POP PUSH2 0x7C1 DUP2 DUP6 PUSH2 0x1060 JUMP JUMPDEST SWAP2 POP SWAP3 POP SWAP3 SWAP1 POP JUMP JUMPDEST PUSH2 0x7D2 PUSH2 0x94B JUMP JUMPDEST PUSH1 0x1 PUSH1 0x1 PUSH1 0xA0 SHL SUB DUP2 AND PUSH2 0x7F9 JUMPI PUSH1 0x40 MLOAD PUSH4 0xED1B8B3 PUSH1 0xE3 SHL DUP2 MSTORE PUSH1 0x4 ADD PUSH1 0x40 MLOAD DUP1 SWAP2 SUB SWAP1 REVERT JUMPDEST PUSH1 0x2 DUP1 SLOAD PUSH1 0x1 PUSH1 0x1 PUSH1 0xA0 SHL SUB DUP4 DUP2 AND PUSH2 0x100 DUP2 DUP2 MUL PUSH2 0x100 PUSH1 0x1 PUSH1 0xA8 SHL SUB NOT DUP6 AND OR SWAP1 SWAP5 SSTORE PUSH1 0x40 MLOAD SWAP4 SWAP1 SWAP3 DIV AND SWAP2 DUP3 SWAP1 PUSH32 0xAAEBCF1BFA00580E41D966056B48521FA9F202645C86D4DDF28113E617C1B1D3 SWAP1 PUSH1 0x0 SWAP1 LOG3 POP POP JUMP JUMPDEST PUSH2 0x85B PUSH2 0x94B JUMP JUMPDEST PUSH1 0x1 PUSH1 0x1 PUSH1 0xA0 SHL SUB DUP2 AND PUSH2 0x88A JUMPI PUSH1 0x40 MLOAD PUSH4 0x1E4FBDF7 PUSH1 0xE0 SHL DUP2 MSTORE PUSH1 0x0 PUSH1 0x4 DUP3 ADD MSTORE PUSH1 0x24 ADD JUMPDEST PUSH1 0x40 MLOAD DUP1 SWAP2 SUB SWAP1 REVERT JUMPDEST PUSH2 0x893 DUP2 PUSH2 0xAB5 JUMP JUMPDEST POP JUMP JUMPDEST PUSH2 0x89E PUSH2 0x978 JUMP JUMPDEST PUSH2 0x8A6 PUSH2 0x9A2 JUMP JUMPDEST PUSH1 0x40 MLOAD PUSH4 0xD505ACCF PUSH1 0xE0 SHL DUP2 MSTORE CALLER PUSH1 0x4 DUP3 ADD MSTORE ADDRESS PUSH1 0x24 DUP3 ADD MSTORE PUSH1 0x44 DUP2 ADD DUP9 SWAP1 MSTORE PUSH1 0x64 DUP2 ADD DUP6 SWAP1 MSTORE PUSH1 0xFF DUP5 AND PUSH1 0x84 DUP3 ADD MSTORE PUSH1 0xA4 DUP2 ADD DUP4 SWAP1 MSTORE PUSH1 0xC4 DUP2 ADD DUP3 SWAP1 MSTORE PUSH1 0x1 PUSH1 0x1 PUSH1 0xA0 SHL SUB DUP11 AND SWAP1 PUSH4 0xD505ACCF SWAP1 PUSH1 0xE4 ADD PUSH1 0x0 PUSH1 0x40 MLOAD DUP1 DUP4 SUB DUP2 PUSH1 0x0 DUP8 DUP1 EXTCODESIZE ISZERO DUP1 ISZERO PUSH2 0x912 JUMPI PUSH1 0x0 DUP1 REVERT JUMPDEST POP GAS CALL ISZERO DUP1 ISZERO PUSH2 0x926 JUMPI RETURNDATASIZE PUSH1 0x0 DUP1 RETURNDATACOPY RETURNDATASIZE PUSH1 0x0 REVERT JUMPDEST POP POP POP POP PUSH2 0x937 DUP10 DUP10 DUP10 DUP10 DUP10 PUSH2 0xB42 JUMP JUMPDEST PUSH2 0x940 PUSH1 0x1 DUP1 SSTORE JUMP JUMPDEST POP POP POP POP POP POP POP POP POP JUMP JUMPDEST PUSH1 0x0 SLOAD PUSH1 0x1 PUSH1 0x1 PUSH1 0xA0 SHL SUB AND CALLER EQ PUSH2 0x61B JUMPI PUSH1 0x40 MLOAD PUSH4 0x118CDAA7 PUSH1 0xE0 SHL DUP2 MSTORE CALLER PUSH1 0x4 DUP3 ADD MSTORE PUSH1 0x24 ADD PUSH2 0x881 JUMP JUMPDEST PUSH1 0x2 PUSH1 0x1 SLOAD SUB PUSH2 0x99B JUMPI PUSH1 0x40 MLOAD PUSH4 0x3EE5AEB5 PUSH1 0xE0 SHL DUP2 MSTORE PUSH1 0x4 ADD PUSH1 0x40 MLOAD DUP1 SWAP2 SUB SWAP1 REVERT JUMPDEST PUSH1 0x2 PUSH1 0x1 SSTORE JUMP JUMPDEST PUSH1 0x2 SLOAD PUSH1 0xFF AND ISZERO PUSH2 0x61B JUMPI PUSH1 0x40 MLOAD PUSH4 0xD93C0665 PUSH1 0xE0 SHL DUP2 MSTORE PUSH1 0x4 ADD PUSH1 0x40 MLOAD DUP1 SWAP2 SUB SWAP1 REVERT JUMPDEST PUSH1 0x40 MLOAD PUSH1 0x1 PUSH1 0x1 PUSH1 0xA0 SHL SUB DUP5 DUP2 AND PUSH1 0x24 DUP4 ADD MSTORE DUP4 DUP2 AND PUSH1 0x44 DUP4 ADD MSTORE PUSH1 0x64 DUP3 ADD DUP4 SWAP1 MSTORE PUSH2 0x791 SWAP2 DUP7 SWAP2 DUP3 AND SWAP1 PUSH4 0x23B872DD SWAP1 PUSH1 0x84 ADD JUMPDEST PUSH1 0x40 MLOAD PUSH1 0x20 DUP2 DUP4 SUB SUB DUP2 MSTORE SWAP1 PUSH1 0x40 MSTORE SWAP2 POP PUSH1 0xE0 SHL PUSH1 0x20 DUP3 ADD DUP1 MLOAD PUSH1 0x1 PUSH1 0x1 PUSH1 0xE0 SHL SUB DUP4 DUP2 DUP4 AND OR DUP4 MSTORE POP POP POP POP PUSH2 0xD26 JUMP JUMPDEST PUSH2 0xA35 PUSH2 0xD97 JUMP JUMPDEST PUSH1 0x2 DUP1 SLOAD PUSH1 0xFF NOT AND SWAP1 SSTORE PUSH32 0x5DB9EE0A495BF2E6FF9C91A7834C1BA4FDD244A5E8AA4E537BD38AEAE4B073AA CALLER JUMPDEST PUSH1 0x40 MLOAD PUSH1 0x1 PUSH1 0x1 PUSH1 0xA0 SHL SUB SWAP1 SWAP2 AND DUP2 MSTORE PUSH1 0x20 ADD PUSH1 0x40 MLOAD DUP1 SWAP2 SUB SWAP1 LOG1 JUMP JUMPDEST PUSH1 0x40 MLOAD PUSH1 0x1 PUSH1 0x1 PUSH1 0xA0 SHL SUB DUP4 DUP2 AND PUSH1 0x24 DUP4 ADD MSTORE PUSH1 0x44 DUP3 ADD DUP4 SWAP1 MSTORE PUSH2 0xAB0 SWAP2 DUP6 SWAP2 DUP3 AND SWAP1 PUSH4 0xA9059CBB SWAP1 PUSH1 0x64 ADD PUSH2 0x9FB JUMP JUMPDEST POP POP POP JUMP JUMPDEST PUSH1 0x0 DUP1 SLOAD PUSH1 0x1 PUSH1 0x1 PUSH1 0xA0 SHL SUB DUP4 DUP2 AND PUSH1 0x1 PUSH1 0x1 PUSH1 0xA0 SHL SUB NOT DUP4 AND DUP2 OR DUP5 SSTORE PUSH1 0x40 MLOAD SWAP2 SWAP1 SWAP3 AND SWAP3 DUP4 SWAP2 PUSH32 0x8BE0079C531659141344CD1FD0A4F28419497F9722A3DAAFE3B4186F6B6457E0 SWAP2 SWAP1 LOG3 POP POP JUMP JUMPDEST PUSH2 0xB0D PUSH2 0x9A2 JUMP JUMPDEST PUSH1 0x2 DUP1 SLOAD PUSH1 0xFF NOT AND PUSH1 0x1 OR SWAP1 SSTORE PUSH32 0x62E78CEA01BEE320CD4E420270B5EA74000D11B0C9F74754EBDBFC544B05A258 PUSH2 0xA62 CALLER SWAP1 JUMP JUMPDEST PUSH1 0x1 PUSH1 0x1 PUSH1 0xA0 SHL SUB DUP6 AND PUSH1 0x0 SWAP1 DUP2 MSTORE PUSH1 0x3 PUSH1 0x20 MSTORE PUSH1 0x40 SWAP1 KECCAK256 SLOAD PUSH1 0xFF AND PUSH2 0xB7B JUMPI PUSH1 0x40 MLOAD PUSH4 0x514E24C3 PUSH1 0xE1 SHL DUP2 MSTORE PUSH1 0x4 ADD PUSH1 0x40 MLOAD DUP1 SWAP2 SUB SWAP1 REVERT JUMPDEST PUSH1 0x1 PUSH1 0x1 PUSH1 0xA0 SHL SUB DUP5 AND PUSH2 0xBA2 JUMPI PUSH1 0x40 MLOAD PUSH4 0xC0B6C919 PUSH1 0xE0 SHL DUP2 MSTORE PUSH1 0x4 ADD PUSH1 0x40 MLOAD DUP1 SWAP2 SUB SWAP1 REVERT JUMPDEST DUP3 PUSH1 0x0 SUB PUSH2 0xBC3 JUMPI PUSH1 0x40 MLOAD PUSH4 0x162908E3 PUSH1 0xE1 SHL DUP2 MSTORE PUSH1 0x4 ADD PUSH1 0x40 MLOAD DUP1 SWAP2 SUB SWAP1 REVERT JUMPDEST PUSH1 0xA PUSH2 0xFFFF DUP4 AND LT DUP1 PUSH2 0xBDB JUMPI POP PUSH2 0x1F4 PUSH2 0xFFFF DUP4 AND GT JUMPDEST ISZERO PUSH2 0xBF9 JUMPI PUSH1 0x40 MLOAD PUSH4 0xA724E54F PUSH1 0xE0 SHL DUP2 MSTORE PUSH1 0x4 ADD PUSH1 0x40 MLOAD DUP1 SWAP2 SUB SWAP1 REVERT JUMPDEST PUSH1 0x0 PUSH2 0x2710 PUSH2 0xC0C PUSH2 0xFFFF DUP6 AND DUP7 PUSH2 0x1021 JUMP JUMPDEST PUSH2 0xC16 SWAP2 SWAP1 PUSH2 0x103E JUMP JUMPDEST SWAP1 POP PUSH1 0x0 PUSH2 0xC24 DUP3 DUP7 PUSH2 0x1060 JUMP JUMPDEST SWAP1 POP DUP7 PUSH2 0xC3C PUSH1 0x1 PUSH1 0x1 PUSH1 0xA0 SHL SUB DUP3 AND CALLER DUP10 DUP6 PUSH2 0x9C6 JUMP JUMPDEST PUSH1 0x2 SLOAD PUSH2 0xC5E SWAP1 PUSH1 0x1 PUSH1 0x1 PUSH1 0xA0 SHL SUB DUP4 DUP2 AND SWAP2 CALLER SWAP2 PUSH2 0x100 SWAP1 SWAP2 DIV AND DUP7 PUSH2 0x9C6 JUMP JUMPDEST PUSH1 0x1 PUSH1 0x1 PUSH1 0xA0 SHL SUB DUP9 AND PUSH1 0x0 SWAP1 DUP2 MSTORE PUSH1 0x4 PUSH1 0x20 MSTORE PUSH1 0x40 DUP2 KECCAK256 DUP1 SLOAD DUP6 SWAP3 SWAP1 PUSH2 0xC86 SWAP1 DUP5 SWAP1 PUSH2 0x108C JUMP JUMPDEST SWAP1 SWAP2 SSTORE POP POP PUSH1 0x1 PUSH1 0x1 PUSH1 0xA0 SHL SUB DUP9 AND PUSH1 0x0 SWAP1 DUP2 MSTORE PUSH1 0x5 PUSH1 0x20 MSTORE PUSH1 0x40 DUP2 KECCAK256 DUP1 SLOAD DUP9 SWAP3 SWAP1 PUSH2 0xCB3 SWAP1 DUP5 SWAP1 PUSH2 0x108C JUMP JUMPDEST SWAP1 SWAP2 SSTORE POP POP PUSH1 0x40 DUP1 MLOAD CALLER DUP2 MSTORE PUSH1 0x20 DUP2 ADD DUP9 SWAP1 MSTORE SWAP1 DUP2 ADD DUP4 SWAP1 MSTORE PUSH1 0x60 DUP2 ADD DUP5 SWAP1 MSTORE PUSH2 0xFFFF DUP7 AND PUSH1 0x80 DUP3 ADD MSTORE PUSH1 0x1 PUSH1 0x1 PUSH1 0xA0 SHL SUB DUP1 DUP10 AND SWAP2 SWAP1 DUP11 AND SWAP1 DUP7 SWAP1 PUSH32 0xEDA262E3443072D3A4D4E8A06A4D05A7170C71716BCE65903F8A60029F158204 SWAP1 PUSH1 0xA0 ADD PUSH1 0x40 MLOAD DUP1 SWAP2 SUB SWAP1 LOG4 POP POP POP POP POP POP POP POP JUMP JUMPDEST PUSH1 0x0 DUP1 PUSH1 0x20 PUSH1 0x0 DUP5 MLOAD PUSH1 0x20 DUP7 ADD PUSH1 0x0 DUP9 GAS CALL DUP1 PUSH2 0xD49 JUMPI PUSH1 0x40 MLOAD RETURNDATASIZE PUSH1 0x0 DUP3 RETURNDATACOPY RETURNDATASIZE DUP2 REVERT JUMPDEST POP POP PUSH1 0x0 MLOAD RETURNDATASIZE SWAP2 POP DUP2 ISZERO PUSH2 0xD61 JUMPI DUP1 PUSH1 0x1 EQ ISZERO PUSH2 0xD6E JUMP JUMPDEST PUSH1 0x1 PUSH1 0x1 PUSH1 0xA0 SHL SUB DUP5 AND EXTCODESIZE ISZERO JUMPDEST ISZERO PUSH2 0x791 JUMPI PUSH1 0x40 MLOAD PUSH4 0x5274AFE7 PUSH1 0xE0 SHL DUP2 MSTORE PUSH1 0x1 PUSH1 0x1 PUSH1 0xA0 SHL SUB DUP6 AND PUSH1 0x4 DUP3 ADD MSTORE PUSH1 0x24 ADD PUSH2 0x881 JUMP JUMPDEST PUSH1 0x2 SLOAD PUSH1 0xFF AND PUSH2 0x61B JUMPI PUSH1 0x40 MLOAD PUSH4 0x8DFC202B PUSH1 0xE0 SHL DUP2 MSTORE PUSH1 0x4 ADD PUSH1 0x40 MLOAD DUP1 SWAP2 SUB SWAP1 REVERT JUMPDEST DUP1 CALLDATALOAD PUSH1 0x1 PUSH1 0x1 PUSH1 0xA0 SHL SUB DUP2 AND DUP2 EQ PUSH2 0xDD1 JUMPI PUSH1 0x0 DUP1 REVERT JUMPDEST SWAP2 SWAP1 POP JUMP JUMPDEST PUSH1 0x0 PUSH1 0x20 DUP3 DUP5 SUB SLT ISZERO PUSH2 0xDE8 JUMPI PUSH1 0x0 DUP1 REVERT JUMPDEST PUSH2 0xDF1 DUP3 PUSH2 0xDBA JUMP JUMPDEST SWAP4 SWAP3 POP POP POP JUMP JUMPDEST DUP1 CALLDATALOAD DUP1 ISZERO ISZERO DUP2 EQ PUSH2 0xDD1 JUMPI PUSH1 0x0 DUP1 REVERT JUMPDEST PUSH1 0x0 DUP1 PUSH1 0x40 DUP4 DUP6 SUB SLT ISZERO PUSH2 0xE1B JUMPI PUSH1 0x0 DUP1 REVERT JUMPDEST PUSH2 0xE24 DUP4 PUSH2 0xDBA JUMP JUMPDEST SWAP2 POP PUSH2 0xE32 PUSH1 0x20 DUP5 ADD PUSH2 0xDF8 JUMP JUMPDEST SWAP1 POP SWAP3 POP SWAP3 SWAP1 POP JUMP JUMPDEST DUP1 CALLDATALOAD PUSH2 0xFFFF DUP2 AND DUP2 EQ PUSH2 0xDD1 JUMPI PUSH1 0x0 DUP1 REVERT JUMPDEST PUSH1 0x0 DUP1 PUSH1 0x0 DUP1 PUSH1 0x0 PUSH1 0xA0 DUP7 DUP9 SUB SLT ISZERO PUSH2 0xE65 JUMPI PUSH1 0x0 DUP1 REVERT JUMPDEST PUSH2 0xE6E DUP7 PUSH2 0xDBA JUMP JUMPDEST SWAP5 POP PUSH2 0xE7C PUSH1 0x20 DUP8 ADD PUSH2 0xDBA JUMP JUMPDEST SWAP4 POP PUSH1 0x40 DUP7 ADD CALLDATALOAD SWAP3 POP PUSH2 0xE91 PUSH1 0x60 DUP8 ADD PUSH2 0xE3B JUMP JUMPDEST SWAP5 SWAP8 SWAP4 SWAP7 POP SWAP2 SWAP5 PUSH1 0x80 ADD CALLDATALOAD SWAP3 SWAP2 POP POP JUMP JUMPDEST PUSH1 0x0 DUP1 PUSH1 0x0 PUSH1 0x60 DUP5 DUP7 SUB SLT ISZERO PUSH2 0xEB7 JUMPI PUSH1 0x0 DUP1 REVERT JUMPDEST PUSH2 0xEC0 DUP5 PUSH2 0xDBA JUMP JUMPDEST SWAP3 POP PUSH1 0x20 DUP5 ADD CALLDATALOAD SWAP2 POP PUSH2 0xED5 PUSH1 0x40 DUP6 ADD PUSH2 0xDBA JUMP JUMPDEST SWAP1 POP SWAP3 POP SWAP3 POP SWAP3 JUMP JUMPDEST PUSH1 0x0 DUP1 PUSH1 0x0 PUSH1 0x40 DUP5 DUP7 SUB SLT ISZERO PUSH2 0xEF3 JUMPI PUSH1 0x0 DUP1 REVERT JUMPDEST DUP4 CALLDATALOAD PUSH8 0xFFFFFFFFFFFFFFFF DUP1 DUP3 GT ISZERO PUSH2 0xF0B JUMPI PUSH1 0x0 DUP1 REVERT JUMPDEST DUP2 DUP7 ADD SWAP2 POP DUP7 PUSH1 0x1F DUP4 ADD SLT PUSH2 0xF1F JUMPI PUSH1 0x0 DUP1 REVERT JUMPDEST DUP2 CALLDATALOAD DUP2 DUP2 GT ISZERO PUSH2 0xF2E JUMPI PUSH1 0x0 DUP1 REVERT JUMPDEST DUP8 PUSH1 0x20 DUP3 PUSH1 0x5 SHL DUP6 ADD ADD GT ISZERO PUSH2 0xF43 JUMPI PUSH1 0x0 DUP1 REVERT JUMPDEST PUSH1 0x20 SWAP3 DUP4 ADD SWAP6 POP SWAP4 POP PUSH2 0xED5 SWAP2 DUP7 ADD SWAP1 POP PUSH2 0xDF8 JUMP JUMPDEST PUSH1 0x0 DUP1 PUSH1 0x40 DUP4 DUP6 SUB SLT ISZERO PUSH2 0xF6C JUMPI PUSH1 0x0 DUP1 REVERT JUMPDEST DUP3 CALLDATALOAD SWAP2 POP PUSH2 0xE32 PUSH1 0x20 DUP5 ADD PUSH2 0xE3B JUMP JUMPDEST PUSH1 0x0 DUP1 PUSH1 0x0 DUP1 PUSH1 0x0 DUP1 PUSH1 0x0 DUP1 PUSH1 0x0 PUSH2 0x120 DUP11 DUP13 SUB SLT ISZERO PUSH2 0xF9B JUMPI PUSH1 0x0 DUP1 REVERT JUMPDEST PUSH2 0xFA4 DUP11 PUSH2 0xDBA JUMP JUMPDEST SWAP9 POP PUSH2 0xFB2 PUSH1 0x20 DUP12 ADD PUSH2 0xDBA JUMP JUMPDEST SWAP8 POP PUSH1 0x40 DUP11 ADD CALLDATALOAD SWAP7 POP PUSH2 0xFC7 PUSH1 0x60 DUP12 ADD PUSH2 0xE3B JUMP JUMPDEST SWAP6 POP PUSH1 0x80 DUP11 ADD CALLDATALOAD SWAP5 POP PUSH1 0xA0 DUP11 ADD CALLDATALOAD SWAP4 POP PUSH1 0xC0 DUP11 ADD CALLDATALOAD PUSH1 0xFF DUP2 AND DUP2 EQ PUSH2 0xFEB JUMPI PUSH1 0x0 DUP1 REVERT JUMPDEST DUP1 SWAP4 POP POP PUSH1 0xE0 DUP11 ADD CALLDATALOAD SWAP2 POP PUSH2 0x100 DUP11 ADD CALLDATALOAD SWAP1 POP SWAP3 SWAP6 SWAP9 POP SWAP3 SWAP6 SWAP9 POP SWAP3 SWAP6 SWAP9 JUMP JUMPDEST PUSH4 0x4E487B71 PUSH1 0xE0 SHL PUSH1 0x0 MSTORE PUSH1 0x11 PUSH1 0x4 MSTORE PUSH1 0x24 PUSH1 0x0 REVERT JUMPDEST DUP1 DUP3 MUL DUP2 ISZERO DUP3 DUP3 DIV DUP5 EQ OR PUSH2 0x1038 JUMPI PUSH2 0x1038 PUSH2 0x100B JUMP JUMPDEST SWAP3 SWAP2 POP POP JUMP JUMPDEST PUSH1 0x0 DUP3 PUSH2 0x105B JUMPI PUSH4 0x4E487B71 PUSH1 0xE0 SHL PUSH1 0x0 MSTORE PUSH1 0x12 PUSH1 0x4 MSTORE PUSH1 0x24 PUSH1 0x0 REVERT JUMPDEST POP DIV SWAP1 JUMP JUMPDEST DUP2 DUP2 SUB DUP2 DUP2 GT ISZERO PUSH2 0x1038 JUMPI PUSH2 0x1038 PUSH2 0x100B JUMP JUMPDEST PUSH1 0x0 PUSH1 0x20 DUP3 DUP5 SUB SLT ISZERO PUSH2 0x1085 JUMPI PUSH1 0x0 DUP1 REVERT JUMPDEST POP MLOAD SWAP2 SWAP1 POP JUMP JUMPDEST DUP1 DUP3 ADD DUP1 DUP3 GT ISZERO PUSH2 0x1038 JUMPI PUSH2 0x1038 PUSH2 0x100B JUMP JUMPDEST PUSH4 0x4E487B71 PUSH1 0xE0 SHL PUSH1 0x0 MSTORE PUSH1 0x32 PUSH1 0x4 MSTORE PUSH1 0x24 PUSH1 0x0 REVERT JUMPDEST PUSH1 0x0 PUSH1 0x1 DUP3 ADD PUSH2 0x10C7 JUMPI PUSH2 0x10C7 PUSH2 0x100B JUMP JUMPDEST POP PUSH1 0x1 ADD SWAP1 JUMP INVALID LOG2 PUSH5 0x6970667358 0x22 SLT KECCAK256 DUP6 PUSH32 0x2EA9005BD76A465106705CDE6916017A5754AD079CDDE8E8B63CF0CB1C5D6473 PUSH16 0x6C634300081400330000000000000000 "},"methodIdentifiers":{"MAX_FEE_BASIS_POINTS()":"4befe2ca","MIN_FEE_BASIS_POINTS()":"5afb9bae","allowedTokens(address)":"e744092e","calculateSplit(uint256,uint16)":"e4d831bd","emergencyWithdraw(address,uint256,address)":"551512de","feeRecipient()":"46904840","isTokenAllowed(address)":"f9eaee0d","owner()":"8da5cb5b","pause()":"8456cb59","paused()":"5c975abb","processPayment(address,address,uint256,uint16,bytes32)":"219468f2","processPaymentWithPermit(address,address,uint256,uint16,bytes32,uint256,uint8,bytes32,bytes32)":"f9d6628d","renounceOwnership()":"715018a6","setFeeRecipient(address)":"e74b981b","setTokenAllowed(address,bool)":"15f69012","setTokensAllowed(address[],bool)":"cd85ab98","totalFeesCollected(address)":"88a40eed","totalVolumeProcessed(address)":"01b8c42d","transferOwnership(address)":"f2fde38b","unpause()":"3f4ba83a"}}}}}